:020000040000FA
:100000000000BB290530CF00FF30CE00FF30CD000F
:10001000CD0B0828CE0B0828CF0B042808000000C1
:100020000000CD0B0F280034F430A0006D30A1008B
:100030000430A200E730A300B230A4003430A500A1
:10004000E030A600CB30A7004E30A8005E30A900FB
:100050008730AA008E30AB000830AC000030AD0015
:100060004530AE000030AF000030B0005230B1007B
:100070000030B2000030B3004030B4000030B500B2
:100080004030B6001130B700B830B8007530B90054
:10009000C030BA00A830BB000030BC00C930BD0081
:1000A000C030BE00A830BF000030C0000C30C1001E
:1000B0001830C200F730C3001830C400F830C50053
:1000C0000030C6000930C7000030C8000030C90049
:1000D0006530CA000130CB000130CC00080083122B
:1000E0000313081483160313403094008312031380
:1000F000203094000030DB00080083120313081046
:100100005330840094130008930083160313141CC7
:10011000872883120313840AD10B82285B1C96283C
:100120005B10203084006030D10082280814080061
:100130000130D000FF30D3000130D1007D200220FB
:10014000A0301F38D3000330D4000230D1007D200E
:1001500040300838D3000030D4000030D500FF30E4
:10016000D6000F30D7000530D1007D2080301F38F9
:10017000D3000230D4000230D1007D20403000385E
:10018000D3000D30D4000030D5007730D6000330D6
:10019000D7000F30D8000630D1007D204030143811
:1001A000D3001430D4000030D5007230D6000430B3
:1001B000D7000530D1007D20080083120313A03042
:1001C0001F38D3000330D4000230D1007D204030EE
:1001D0000438D3000030D4001030D5000330D100F3
:1001E0007D2040300238D3000030D4001030D500DC
:1001F0000330D1007D2060301A38D3000030D400A5
:100200005B140230D1007D2040300638D3006030CE
:10021000D4001030D5000330D1007D20A0301C3830
:10022000D3000830D4000230D1007D2080301B384C
:10023000D3008030D4000230D1007D2080301F38C0
:10024000D3000830D4000230D1007D200800831292
:1002500003138316871783120220831287138316D2
:1002600087138312080083120313831687178312E0
:100270000030DC00831287138316871383126330E8
:10028000CD000F208316871783120D30CD000F206D
:10029000871FDC0A4F30CD000F20080083120313A4
:1002A0000830DD0083128713831687138312000042
:1002B0000000000000000000000083168717831272
:1002C000000000000000000007088039FF3EDE0C3F
:1002D0000930CD000F20DD0B52295E080800831283
:1002E0000313DE000830DD008312871383168713A3
:1002F00083120000DE0C83160318871783120B305D
:10030000CD000F2083168717831200000000DD0B3D
:1003100074290800831603138501860110308700B5
:1003200088018901831203138501860187018801F1
:100330008901A321022014206F209820A721AB213E
:100340000800080008008312031305140800831234
:100350000313051008008312031305150800831208
:100360000313051108008312031385140800831278
:100370000313851008008A210220AF21A321332115
:1003800055306F2110306F2113306F21C1306F2134
:10039000F5306F2101306F2108306F2100306F215F
:1003A0003B306F2144306F212721332155306F219D
:1003B00010306F2113306F21C1306F21F5306F2164
:1003C00001306F2108306F2100306F213B306F21E9
:1003D000BE306F214E21E8004E21E7003321553019
:1003E0006F2110306F2133306F219D306F21F53038
:1003F0006F2101306F2108306F2100306F213930BB
:100400006F2144306F212721332155306F21103067
:100410006F2133306F219D306F21F5306F21013016
:100420006F2108306F2100306F2139306F21BE30CD
:100430006F214E21EA004E21E900332155306F2112
:1004400010306F21F7306F2197306F21F5306F2119
:1004500001306F2108306F2100306F21C7306F21CC
:1004600044306F212721332155306F2110306F2107
:10047000F7306F2197306F21F5306F2101306F21F8
:1004800008306F2100306F21C7306F21BE306F21DF
:100490004E21EC004E21EB00DD20A721AB21BC2931
:00000001FF
