:020000040000FA
:1000000083120313081483160313403094008312E1
:100010000313203094000030DA0008008312031329
:1000200008105230840094130008930083160313C1
:10003000141C182883120313840AD00B13285A1C8B
:1000400027285A10203084006030D000132808146C
:1000500008000130CF00BF20BF20BF20FF30D200FA
:100060000130D0000E20BF20BF20BF20A0301F389D
:10007000D2000330D3000230D0000E2040300838C8
:10008000D2000030D3000030D400FF30D5000F3054
:10009000D6000530D0000E2080301F38D20002304C
:1000A000D3000230D0000E2040300038D2000D3096
:1000B000D3000030D4007730D5000330D6000F30A5
:1000C000D7000630D0000E2040301438D200143053
:1000D000D3000030D4007230D5000430D600053093
:1000E000D0000E20080083120313A0301F38D20066
:1000F0000330D3000230D0000E2040300438D2004C
:100100000030D3001030D4000330D0000E20403037
:100110000238D2000030D3001030D4000330D000B9
:100120000E2060301A38D2000030D3005A1402304A
:10013000D0000E2040300638D2006030D30010309E
:10014000D4000330D0000E20A0301C38D20008307C
:10015000D3000230D0000E2080301B38D200803017
:10016000D3000230D0000E2080301F38D20008307B
:10017000D3000230D0000E20080000005129FF30CB
:10018000CE00FF30CD00CD0BC328CE0BC328080016
:10019000F430A0006D30A1000430A200E730A300CD
:1001A000B230A4003430A500E030A600CB30A70068
:1001B0004E30A8005E30A9008730AA008E30AB0018
:1001C0000830AC000030AD004530AE000030AF006C
:1001D0000030B0005230B1000030B2000030B30047
:1001E0004030B4000030B5004030B6001130B700E8
:1001F000B830B8007530B900C030BA00A830BB00C4
:100200000030BC00C930BD00C030BE00A830BF0007
:100210000030C0000C30C1001830C200F730C300FD
:100220001830C400F830C5000030C6000930C700DF
:100230000030C8000030C9006530CA000130CB0072
:10024000080083160313850186011030870088019A
:1002500089018312031385018601870188018901C1
:100260003921C820002029203D2141210800080013
:1002700008008312031306140800831203130610E8
:1002800008008312031306150800831203130611D6
:1002900008008312031386140800831203138610C8
:1002A0000800212145213921BF2000308819FF3065
:1002B000CC0073203D214121BF20BF20BF20BF20A3
:1002C000BF20BF20BF20BF20BF20BF20BF2052299A
:00000001FF
