:020000040000FA
:1000000000001828000000000000A30B02280800D0
:10001000831603138501860110308700880189014A
:100020008312031385018601870188018901080075
:100030000820831203130130A000FE30A100200825
:10004000A300013085000220A00A2108A30002308D
:1000500085000220A10B1F280130A000FE30A10066
:100060002008A300043085000220A00A2108A30074
:10007000013085000220A10B30280130A000FE30A5
:10008000A1002008A300023085000220A00A210858
:10009000A300043085000220A10B41280130A000FC
:0600A000FE30A1001F2844
:00000001FF
