:020000040000FA
:10000000302B2030CF00FF30CE00CE0B0528CF0B99
:10001000032808001030D000FF30CF00FF30CE00A2
:10002000CE0B1028CF0B0E28D00B0C280800000098
:100030000000D00B1728003483120313C730870445
:10004000831603134030940083120313203094006E
:100050000030E4000030E5000030E60008008312C4
:1000600003135808870608008312031363088400EB
:100070009413031083107F180314FF1883140008CF
:1000800083120313930083160313141C4528831251
:1000900003131308E200840AD90B382808008312DE
:1000A00003135808870408002F200030FF005A303F
:1000B000E30034204F2008002F205A30E300342082
:1000C0000030E4000030E5006614E6100030FF0068
:1000D0002030E3002A30D90034200030FF00003007
:1000E000E3008030D90034200130FF000030E3000D
:1000F0008030D90034200230FF000030E30080302F
:10010000D90034200330FF000030E3008030D900F4
:1001100034204F2008000230D800FF30DA000130D0
:10012000D90054200120A0301F38DA000330DB0052
:100130000230D900542040300838DA000030DB00AB
:100140000030DC00FF30DD000F30DE000530D9006C
:10015000542080301F38DA000230DB000230D90032
:10016000542040300038DA000D30DB000030DC0075
:100170007730DD000330DE000F30DF000630D900BD
:10018000542040301438DA001430DB000030DC003A
:100190007230DD000430DE000530D9005420080044
:1001A000831203130230D800A0301F38DA00033066
:1001B000DB000230D900542040300438DA0000302F
:1001C000DB001030DC000330D9005420403002380E
:1001D000DA000030DB001030DC000330D90054209E
:1001E00060301A38DA000030DB000230D9005C20C1
:1001F00040300638DA002A30DB001230DC000330F1
:10020000D9005420A0301C38DA000830DB0002305E
:10021000D900542080301B38DA008030DB000230F7
:10022000D900542080301F38DA000830DB0002305B
:10023000D90054200800831203130130D800053080
:10024000DA000030DB000230D900542008008312AD
:1002500003130130D8000130DA008030DB000230B7
:10026000D90054200630DA000130D90054200800AB
:100270008312031383168815831208008312031355
:1002800083128811831688118312080083120313C6
:100290008316881583120030E700831288118316B5
:1002A000881183126330D0001720831688158312BB
:1002B0000D30D0001720881DE70A4F30D0001720DE
:1002C000080083120313E9000830E8008312881144
:1002D0008316881183120000E90C83160318881511
:1002E00083120B30D000172083168815831200006C
:1002F0000000E80B66290800831203130830E800A9
:1003000083128811831688118312000000000000F8
:100310000000000000008316881583120000000012
:100320000000000008080839FF3EE90C0930D00041
:100330001720E80B80296908080046215530612103
:100340006A0861216B0861216C0861216D086121D7
:100350006E0861216F0861217008612171086121B7
:1003600008004621333061217C21EA007C21EB002A
:100370007C21EC007C21ED007C21EE007C21EF0053
:100380007C21F0007C21F10008009D214430612196
:10039000382108003E2108009D21BE3061217C21CA
:1003A000F3007C21F2007C217C217C217C217C21BA
:1003B000F4007C217C21F30C03187416721CE229D2
:1003C000FF30F306080083120313D601D501D401D0
:1003D000D301D701080083120313D60A0319D50AE3
:1003E0000319D40A0319D30A0800D70A571D0800B5
:1003F000EB21D70108008312031381309F0083167D
:100400000313CB309F0083120313080083120313DE
:100410001F19062A080083120313C7309F052030D6
:100420009F041F1506221E08FD00831603131E08D5
:1004300083120313FE0008008312031308108810B0
:100440000800831203130810881408008312031392
:100450000814881008008312031308148814080075
:10046000F430A0006D30A1000430A200E730A300FA
:10047000B230A4003430A500E030A600CB30A70095
:100480004E30A8005E30A9008730AA008E30AB0045
:100490000830AC000030AD004530AE000030AF0099
:1004A0000230B0001C30B1000030B2000030B300A8
:1004B0004030B4000030B5004030B6001130B70015
:1004C000B630B800AB30B900C030BA00A830BB00BD
:1004D0000030BC00C930BD00C030BE00A830BF0035
:1004E0000030C0000C30C1001830C200F730C3002B
:1004F0001830C400F830C5000230C6000830C7000C
:100500000030C8000030C9006530CA000130CB009F
:100510000130CC000030FF000800831603138B303D
:100520009F00FF30850000308600103087000430C7
:100530008800043089008312031301309F00850175
:1005400086018701880189012122012030221C2097
:100550008B20E32108001030EA001330EB00C1309B
:10056000EC00F530ED000130EE000830EF00003017
:10057000F0003B30F10008001030EA003330EB00AF
:100580009D30EC00F530ED000130EE000830EF005A
:100590000030F0003930F10008001030EA00793006
:1005A000EB009430EC00F530ED000130EE00083047
:1005B000EF000030F0007030F10008001030EA0069
:1005C000F730EB009730EC00F530ED000130EE0035
:1005D0000830EF000030F000C730F1000800730869
:1005E000F7007408F80008007308F7007408F800B2
:1005F00008007308F9007408FA0008007308FB008B
:100600007408FC0008002622080026220800262282
:100610000800262208002B22080083120313081268
:1006200088160813881701200816881208178813DF
:1006300001200D2B08001F307702CD007F1008002D
:100640000800D2002023831203130919222B202330
:1006500083120313091D272BF521D20B222B08002F
:100660008D220A2004302123AB22C521043021230E
:10067000CA21CC21EF2204302123BC22C521043021
:100680002123CA21CC21F42204302123CD22C521EB
:1006900004302123CA21CC21F92202302123B121A7
:1006A000023021230B22023021231B23023021237D
:1006B0008817083021231C22023021230523013012
:1006C00021231C22013021230723013021231C2256
:1006D000013021230923013021231C220130212351
:1006E0000B23013021231C2201302123032301305D
:1006F000212305302123D020023021231A23023068
:0607000021238813322BB7
:00000001FF
