:020000040000FA
:1000000000006229FF30CE00FF30CD00CD0B062866
:10001000CE0B0628080008000220022002200B2038
:100020000B200B200800F430A0006D30A10004303C
:10003000A200E730A300B230A4003430A500E030C5
:10004000A600CB30A7004E30A8005E30A900873054
:10005000AA008E30AB000830AC000030AD00453057
:10006000AE000030AF000030B0005230B1000030C0
:10007000B2000030B3004030B4000030B500403072
:10008000B6001130B700B830B8007530B900C030D4
:10009000BA00A830BB000030BC00C930BD00C03081
:1000A000BE00A830BF000030C0000C30C1001830C6
:1000B000C200F730C3001830C400F830C50000306B
:1000C000C6000930C7000030C8000030C9006530E4
:1000D000CA000130CB0008008312031308148316F2
:1000E0000313403094008312031320309400003037
:1000F000DA000800831203130810523084009413AE
:1001000000089300040886000B2083160313141CB8
:10011000872883120313840AD00B7F285A1C972840
:100120005A10203084006030D0005A217F285E2190
:100130000030860008140F2008000130CF00022094
:1001400002200220FF30D2000130D0007A200220AD
:1001500002200220A0301F38D2000330D30002302A
:10016000D0007A2040300838D2000030D300003070
:10017000D400FF30D5000F30D6000530D0007A20F3
:1001800080301F38D2000230D3000230D0007A20F5
:1001900040300038D2000D30D3000030D40077302A
:1001A000D5000330D6000F30D7000630D0007A20BB
:1001B00040301438D2001430D3000030D4007230F4
:1001C000D5000430D6000530D0007A200800831214
:1001D0000313A0301F38D2000330D3000230D00008
:1001E0007A2040300438D2000030D3001030D400E0
:1001F0000330D0007A2040300238D2000030D300E3
:100200001030D4000330D0007A2060301A38D20089
:100210000030D3005A140230D0007A204030063823
:10022000D2006030D3001030D4000330D0007A20E8
:10023000A0301C38D2000830D3000230D0007A2021
:1002400080301B38D2008030D3000230D0007A20BA
:1002500080301F38D2000830D3000230D0007A201E
:100260000800831603138501860110308700FE30D5
:1002700088008901831203138501860187018801A3
:1002800089014A2113206C209D204E215221080013
:1002900008000800831203130514080083120313D7
:1002A00005100800831203130515080083120313B9
:1002B0000511080083120313851408008312031329
:1002C00085100800312100308819FF30CC005621FC
:1002D0004A21E7204E215221022002200220022042
:0202E000632990
:00000001FF
