:020000040000FA
:100000009B2A2030CF00FF30CE00CE0B0528CF0B2F
:100010000328080000000000D00B0A2800348312D7
:100020000313081483160313403094008312031340
:10003000203094000030E3000800831203130810FE
:100040005B30840094130008930083160313141C80
:10005000272883120313840AD90B2228631C36280D
:100060006310203084006030D90022280814080072
:100070000130D800FF30DB000130D9001D20012005
:10008000A0301F38DB000330DC000230D9001D2017
:1000900040300838DB000030DC000030DD00FF308D
:1000A000DE000F30DF000530D9001D2080301F3802
:1000B000DB000230DC000230D9001D204030003867
:1000C000DB000D30DC000030DD007730DE00033077
:1000D000DF000F30E0000630D9001D20403014381A
:1000E000DB001430DC000030DD007230DE00043054
:1000F000DF000530D9001D20080083120313A03053
:100100001F38DB000330DC000230D9001D204030F6
:100110000438DB000030DC001030DD000330D90093
:100120001D2040300238DB000030DC001030DD00E4
:100130000330D9001D2060301A38DB000030DC00AD
:1001400063140230D9001D2040300638DB006030D7
:10015000DC001030DD000330D9001D20A0301C3839
:10016000DB000830DC000230D9001D2080301B3855
:10017000DB008030DC000230D9001D2080301F38C9
:10018000DB000830DC000230D9001D20080083129B
:100190000313831687178312080083120313831235
:1001A00087138316871383120800831203138316A1
:1001B000871783120030E400831287138316871396
:1001C00083126330D0000A208316871783120D3004
:1001D000D0000A20871FE40A4F30D0000A20080010
:1001E00083120313E6000830E50083128713831699
:1001F000871383120000E60C8316031887178312F7
:100200000B30D0000A2083168717831200000000ED
:10021000E50BF5280800831203130830E50083126C
:10022000871383168713831200000000000000006C
:1002300000000000831687178312000000000000F2
:10024000000007088039FF3EE60C0930D0000A2084
:10025000E50B0F2966080800D5205530F020670807
:10026000F0206808F0206908F0206A08F0206B0888
:10027000F0206C08F0206D08F0206E08F0200800D7
:10028000D5203330F0200B21E7000B21E8000B21B3
:10029000E9000B21EA000B21EB000B21EC000B2104
:1002A000ED000B21EE0008002C214430F020C72087
:1002B0000800CD2008002C21BE30F0200B21F000DA
:1002C0000B21EF000B210B210B210B210B21F10046
:1002D0000B210B21F00C031871166F1C7129FF30D4
:1002E000F006080083120313D601D501D401D3010F
:1002F000D701080083120313D60A0319D50A03197C
:10030000D40A0319D30A0800D70A571D08007A2116
:10031000D7010800831203130812881608008312FD
:100320000313881208160800831203130813881396
:100330000800831203130817881708008312031399
:10034000081388170800F430A0006D30A1000430B5
:10035000A200E730A300B230A4003430A500E030A2
:10036000A600CB30A7004E30A8005E30A900873031
:10037000AA008E30AB000830AC000030AD00453034
:10038000AE000030AF000030B0005230B10000309D
:10039000B2000030B3004030B4000030B50040304F
:1003A000B6001130B700B830B8007530B900C030B1
:1003B000BA00A830BB000030BC00C930BD00C0305E
:1003C000BE00A830BF000030C0000C30C1001830A3
:1003D000C200F730C3001830C400F830C500003048
:1003E000C6000930C7000030C8000030C9006530C1
:1003F000CA000130CB000130CC0008008316031383
:100400000030850000308600103087000230880000
:10041000003089008312031385018601870188015A
:1004200089018A210120A3210F2038207221080090
:10043000080008001030E7001330E800C130E90080
:10044000F530EA000130EB000830EC000030ED0040
:100450003B30EE0008001030E7003330E8009D30FC
:10046000E900F530EA000130EB000830EC00003024
:10047000ED003930EE0008001030E7007930E80078
:100480009430E900F530EA000130EB000830EC0070
:100490000030ED007030EE0008001030E700F7305B
:1004A000E8009730E900F530EA000130EB00083051
:1004B000EC000030ED00C730EE0008007008F400DA
:1004C0007108F50008007008F4007108F5000800D4
:1004D0007008F6007108F70008007008F80071084D
:1004E000F9000800992108009E2108009E210800BB
:1004F0009E21080099210800831203130812881610
:10050000081388170120081688120817881301207D
:100510007C2A0800D2008F218922831203138818B5
:100520008C2A892283120313881C912A8421D20BDE
:100530008C2A8A210800FE2104308A221A225421A2
:1005400004308A2259215B215E2204308A222B2228
:10055000542104308A2259215B21632204308A22EB
:100560004D22542104308A2259215B216D2204300E
:100570008A22722203308A22942101308A22742234
:1005800001308A22942101308A22762201308A2287
:10059000942101308A22782201308A22942101306C
:1005A0008A227A2201308A22942101308A227D20F7
:0605B00014308A229C2A8F
:00000001FF
