:020000040000FA
:10000000DB2A2030CF00FF30CE00CE0B0528CF0BEF
:100010000328080000000000D00B0A2800348312D7
:100020000313081483160313403094008312031340
:100030002030940008008312031308100800831274
:100040000313620884009413031083107F180314B1
:10005000FF188314000883120313930083160313FD
:10006000141C302883120313840AD90B2328080098
:10007000081408001B200030FF005A30E2001F2047
:10008000382008001B205A30E2001F200030FF00FB
:100090002030E2002A30D9001F200030FF0000305D
:1000A000E2008030D9001F200130FF000030E20064
:1000B0008030D9001F200230FF000030E200803085
:1000C000D9001F200330FF000030E2008030D9004B
:1000D0001F20382008000130D800FF30DA0001303E
:1000E000D9003A200120A0301F38DA000330DB00AD
:1000F0000230D9003A2040300838DA000030DB0006
:100100000030DC00FF30DD000F30DE000530D900AC
:100110003A2080301F38DA000230DB000230D9008C
:100120003A2040300038DA000D30DB000030DC00CF
:100130007730DD000330DE000F30DF000630D900FD
:100140003A2040301438DA001430DB000030DC0094
:100150007230DD000430DE000530D9003A2008009E
:1001600083120313A0301F38DA000330DB000230A3
:10017000D9003A2040300438DA000030DB0010307B
:10018000DC000330D9003A2040300238DA00003079
:10019000DB001030DC000330D9003A2060301A3820
:1001A000DA000030DB000230D9004220403006384F
:1001B000DA002A30DB001230DC000330D9003A20AC
:1001C000A0301C38DA000830DB000230D9003A20B9
:1001D00080301B38DA008030DB000230D9003A2052
:1001E00080301F38DA000830DB000230D9003A20B6
:1001F00008008312031383168717831208008312E3
:100200000313831287138316871383120800831244
:1002100003138316871783120030E30083128713BA
:100220008316871383126330D0000A208316871742
:1002300083120D30D0000A20871FE30A4F30D00010
:100240000A20080083120313E5000830E40083123B
:1002500087138316871383120000E50C8316031897
:10026000871783120B30D0000A208316871783125A
:1002700000000000E40B2729080083120313083054
:10028000E400831287138316871383120000000093
:100290000000000000000000831687178312000092
:1002A00000000000000007088039FF3EE50C09301F
:1002B000D0000A20E40B41296508080007215530C9
:1002C0002221660822216708222168082221690864
:1002D00022216A0822216B0822216C0822216D0844
:1002E000222108000721333022213D21E6003D2153
:1002F000E7003D21E8003D21E9003D21EA003D21E4
:10030000EB003D21EC003D21ED0008005E21443072
:100310002221F9200800FF2008005E21BE302221A2
:100320003D21EF003D21EE003D213D213D213D21BC
:100330003D21F0003D213D21EF0C031870166E1C8D
:10034000A329FF30EF06080083120313D601D5015D
:10035000D401D301D701080083120313D60A03196D
:10036000D50A0319D40A0319D30A0800D70A571D5E
:100370000800AC21D7010800831203130812881665
:10038000080083120313881208160800831203134F
:10039000081388130800831203130817881708002E
:1003A00083120313081388170800F430A0006D307F
:1003B000A1000430A200E730A300B230A400343022
:1003C000A500E030A600CB30A7004E30A8005E307C
:1003D000A9008730AA008E30AB000830AC00003096
:1003E000AD004530AE000030AF000230B0001C3030
:1003F000B1000030B2000030B3004030B400003033
:10040000B5004030B6001130B700B630B800AB30A0
:10041000B900C030BA00A830BB000030BC00C93001
:10042000BD00C030BE00A830BF000030C0000C309E
:10043000C1001830C200F730C3001830C400F830D3
:10044000C5000230C6000830C7000030C8000030C8
:10045000C9006530CA000130CB000130CC0000304B
:10046000F900080083160313003085000030860071
:100470001030870002308800003089008312031397
:1004800085018601870188018901BC210120D521D0
:100490000F206B20A4210800080008001030E6009F
:1004A0001330E700C130E800F530E9000130EA0020
:1004B0000830EB000030EC003B30ED00080010305D
:1004C000E6003330E7009D30E800F530E900013008
:1004D000EA000830EB000030EC003930ED00080095
:1004E0001030E6007930E7009430E800F530E9009C
:1004F0000130EA000830EB000030EC007030ED0015
:1005000008001030E600F730E7009730E800F530DB
:10051000E9000130EA000830EB000030EC00C730A1
:10052000ED0008006F08F3007008F40008006F0881
:10053000F3007008F40008006F08F5007008F6007A
:1005400008006F08F7007008F8000800CB210800C9
:10055000D0210800D0210800D0210800CB210800BC
:10056000831203130812881608138817012008162F
:100570008812081788130120B02AFF307907031862
:10058000B02208001F307302CD00791003187914CF
:1005900008000800D200C121C92283120313881861
:1005A000CC2AC92283120313881CD12AB621D20B6C
:1005B000CC2ABC21080032220430CA224E228621D5
:1005C0000430CA228B218D2192220430CA225F225C
:1005D00086210430CA228B218D2197220430CA2221
:1005E000812286210430CA228B218D21A122043050
:1005F000CA22A6220330CA22C6210130CA22A8225A
:100600000130CA22C6210130CA22AA220130CA22E0
:10061000C6210130CA22AC220130CA22C6210130D3
:10062000CA22AE220130CA22C6210130CA22C22209
:100630000430CA22B0200430CA22BD220C30CA22A3
:02064000DC2AB2
:00000001FF
