:020000040000FA
:10000000BF2A2030CF00FF30CE00CE0B0528CF0B0B
:100010000328080000000000D00B0A2800348312D7
:100020000313081483160313403094008312031340
:10003000203094000030E3000800831203130810FE
:100040005B30840094130008930083160313141C80
:10005000272883120313840AD90B2228631C36280D
:100060006310203084006030D90022280814080072
:100070000130D800FF30DB000130D9001D20012005
:10008000A0301F38DB000330DC000230D9001D2017
:1000900040300838DB000030DC000030DD00FF308D
:1000A000DE000F30DF000530D9001D2080301F3802
:1000B000DB000230DC000230D9001D204030003867
:1000C000DB000D30DC000030DD007730DE00033077
:1000D000DF000F30E0000630D9001D20403014381A
:1000E000DB001430DC000030DD007230DE00043054
:1000F000DF000530D9001D200800831203130130F2
:10010000D800A0301F38DC000330DD000230D900F9
:100110001D2080301F38DC000230DD000230D900A5
:100120001D2040301438DC001430DD000030DE00CB
:100130008230DF000830E0000530D9001D200800C3
:1001400083120313A0301F38DB000330DC000230C1
:10015000D9001D2040300438DB000030DC001030B6
:10016000DD000330D9001D2040300238DB000030B4
:10017000DC001030DD000330D9001D2060301A385B
:10018000DB000030DC0063140230D9001D20403059
:100190000638DB006030DC001030DD000330D900B1
:1001A0001D20A0301C38DB000830DC000230D900F4
:1001B0001D2080301B38DB008030DC000230D9008D
:1001C0001D2080301F38DB000830DC000230D900F1
:1001D0001D2008008312031383168717831208005B
:1001E0008312031383128713831687138312080065
:1001F000831203138316871783120030E4008312DF
:1002000087138316871383126330D0000A20831666
:10021000871783120D30D0000A20871FE40A4F3061
:10022000D0000A20080083120313E6000830E5001E
:10023000831287138316871383120000E60C83163C
:100240000318871783120B30D0000A2083168717F4
:10025000831200000000E50B182908008312031325
:100260000830E5008312871383168713831200007A
:1002700000000000000000000000831687178312B2
:10028000000000000000000007088039FF3EE60C77
:100290000930D0000A20E50B322966080800F82052
:1002A00055301321670813216808132169081321A9
:1002B0006A0813216B0813216C0813216D081321A0
:1002C0006E0813210800F820333013212E21E70097
:1002D0002E21E8002E21E9002E21EA002E21EB003C
:1002E0002E21EC002E21ED002E21EE0008004F21E2
:1002F00044301321EA200800F02008004F21BE30CE
:1003000013212E21F0002E21EF002E212E212E214F
:100310002E212E21F1002E212E21F00C0318711612
:100320006F1C9429FF30F006080083120313D601D6
:10033000D501D401D301D701080083120313D60AD3
:100340000319D50A0319D40A0319D30A0800D70AD6
:10035000571D08009D21D7010800831203130812BE
:1003600088160800831203138812081608008312E7
:100370000313081388130800831203130817881740
:10038000080083120313081388170800F430A00034
:100390006D30A1000430A200E730A300B230A40009
:1003A0003430A500E030A600CB30A7004E30A800C6
:1003B0005E30A9008730AA008E30AB000830AC0058
:1003C0000030AD004530AE000030AF000030B0006E
:1003D0005230B1000030B2000030B3004030B40001
:1003E0000030B5004030B6001130B700B830B8006A
:1003F0007530B900C030BA00A830BB000030BC0076
:10040000C930BD00C030BE00A830BF000030C00001
:100410000C30C1001830C200F730C3001830C400DF
:10042000F830C5000030C6000930C7000030C800F1
:100430000030C9006530CA000130CB000130CC006B
:10044000080083160313003085000030860010304A
:100450008700023088000030890083120313850171
:100460008601870188018901AD210120C6210F2065
:10047000382095217D200800080008001030E70092
:100480001330E800C130E900F530EA000130EB003C
:100490000830EC000030ED003B30EE00080010307A
:1004A000E7003330E8009D30E900F530EA00013024
:1004B000EB000830EC000030ED003930EE000800B1
:1004C0001030E7007930E8009430E900F530EA00B8
:1004D0000130EB000830EC000030ED007030EE0031
:1004E00008001030E700F730E8009730E900F530F9
:1004F000EA000130EB000830EC000030ED00C730BE
:10050000EE0008007008F4007108F500080070089B
:10051000F4007108F50008007008F6007108F70093
:1005200008007008F8007108F9000800BC210800F4
:10053000C1210800C1210800C1210800BC21080018
:10054000831203130812881608138817012008164F
:100550008812081788130120A02A0800D200B221AF
:10056000AD22831203138818B02AAD22831203131D
:10057000881CB52AA721D20BB02AAD210800212260
:100580000430AE223E2277210430AE227C217E212F
:1005900082220430AE224F2277210430AE227C2109
:1005A0007E2187220430AE22712277210430AE22D0
:1005B0007C217E2191220430AE2296220330AE228D
:1005C000B7210130AE2298220130AE22B72101308E
:1005D000AE229A220130AE22B7210130AE229C22F7
:1005E0000130AE22B7210130AE229E220130AE2270
:0E05F000B7210130AE22A0201430AE22C02A66
:00000001FF
